S123F8007EFC7E7EFC797EF8737EF88A7EFB077EFB0E7EFADB7EFAD87EFB127EFADD7EF810
S123F820F67EFD5F0442FB980443FC0F0444FD860447FC11044CFE9A044DFA5B044FFAB417
S123F8400450FE720452FB1E054849F8E9054859F8F10454FC460456FEABFEF8C8F891F88F
S123F860D1F8D2F8A8F8D1F8D1FDECF8D1FEAFFEC3FEBA37C6028D6724FA847F27F6817FAE
S123F88027F2D6F626028D02333937C6088D503339961148250348240396120D3937D6117C
S123F8A0C52027FA971333398DF3D6F62602D6D5810D2708811027EFC403200254545A2B8F
S123F8C0E6364F8DD83220F6CC10078D1F860A971139CEFF86BDFB07CE411B0926FD393C2F
S123F8E0DEFC3AEE00AD003839CC4F0697D5D71039CC000520F68E00CFCEF85BDFFCCEFF2A
S123F900C8DFFECEF824DFFACEE000DFF88E00BB9FE48E00CFCE00E66F00088C00F826F800
S123F9205F8DBCC6068DB8CEFF90BDFB0E86D097E3BDFCEA270A8CF80326177C00082012C9
S123F940DEF86F026F03CC0122A701E700CCA600ED008E00CF7F00F6BDFB128621BDF8090C
S123F960BDFA092BED270ABDF9FC2BE6CEFA5F2074CEFC41812E276DCEFAA8812F27669F62
S123F980D17F00D08D6527137C00D036308C0080272BBDFA092B2C262420E997D6DEFADF79
S123F9A0D3DED33CE6003ADFD3C003D1D0271638C1FC2605CEF824DFD3C1FB26E4CEFF8E33
S123F9C0BDFB0E208DDED1DFD93808A6003CDED9A10027033820CA09DFD95A26EC38089E78
S123F9E0D1EE0096D6AD002BD420D8812C270A81202706810D2702812D398D112F0AC1044E
S123FA002F3A7D00DC27355339C6F020015FCE0000DFD9DFDBCE00D98D252B17C6046801F4
S123FA20690024037C00DC5A26F4AA01A7017C00DB20E581182603C6FF39DED9D6DB39BD99
S123FA40F80681302BF181392F0D5D2BEA81412BE681462EE28007840F5F398D9D2F52DE8A
S123FA60D9812F2704812026488D76DFD73C5F8D9C382B3F2707D6DABDFAF72B36810D27FE
S123FA8032812C26030820E3812026030820DA810A260608BDFB16200D815E260309200494
S123FAA0812F260D8D6CDFD7CE00D78D2BDED720B886FF39BDFE57DCD983000193D7C17F13
S123FAC022054D270620EA81FF26E6D7DB8D43CE00DB8D078D3C20D08D07088D0486202080
S123FAE03AA600368D0332200444444444840F8B90198940192024E700E10027B6CEFF9BFC
S123FB008D0C20AD8D1508A600810426F7398D0220F5860A8D05860D8D014F7EF8098D66A8
S123FB208DF0CE00DD5F3CCEFFB53AA6008D62A601387D00D0270B4D27038DA5088D9C086D
S123FB402004378D0833CB02C10C26DA39363CBDFA0D38332B1B271DBDF9EB26145D270918
S123FB6036DCD9ED0032082004D6DAE700810D261338334F39812026F85D2605BDFADB2001
S123FB8003BDFAD808398D8A7C00D08D957F00D0398D02862D7EF809810D272D812D274CBD
S123FBA0BDF9FA2B442606812D2741203C810D26388D262714CE00E6EC00270908088C003E
S123FBC0EE26F52024DCD9ED00BDFB12CE00E6C604BDFAD8085A26F939CE00E6DCD9A30095
S123FBE0270908088C00EE26F386FF39BDF9FA2BF8810D26F45D260DCE00E5C60C086F0069
S123FC005A26FA20C48DD226E0ED006F0820BA97F7810D270EBDF9FA2FCF810D26CB7F00E2
S123FC20F5DFDDBDFB1296F7270E7F00F7DEE4CCFC5809ED0009DFE496F52603BDFD3620A5
S123FC4015CE00012009810D27F7BDFA0D2F9ADFF327967C00F52062360797E3329FE48EDE
S123FC6000CFDDE1DFDFCEFC58DFDDBDFD157EFD7AC618DE093ADF0B397C00088DF3308EAF
S123FC8000CF8D79BDFD15DEF3260A7F00F5BDFD362B24202509DFF326037F00F5CE00007D
S123FCA0BDFDD727F1CEFFB1BDFB0EDED9BDFADBBDFB8896F526037EF9529EE4DEDD3CDEF6
S123FCC0DF3CDCE1363796E33696F5271CDEDDDFD98D17270D86029701D608C4FED7088DE7
S123FCE0903BCC0501DEF8ED023BCEFFF0960384E081202702DEFEEE0C8CF80039A600970F
S123FD00E3EC0197E2D7E1EC03DDDFEC05DDDDC6063ADFE43996F2271CCE00E6C6083C3CC1
S123FD203AA60038EE002702A7003808085AC10426EC7F00F23996F22670CE00E6C6083CEA
S123FD40EE002710A60037C63FBDFAF733382B0E3C3AA7003808085AC10426E3D7F2393087
S123FD608E00CF8D98DEDD09DFDDDFD996F2270A8DA3BDFBD926034C20044F5FDDF397F5A8
S123FD80BDFB867EF952DED73C810D270A8D5A2F16DFD7810D2616DCD7C4F0830010DDD74E
S123FDA0C30020DDD9201A38DFD786FF398D3A2FF6DCD7C4F0D7D893D922EC96DA84F097C9
S123FDC0DAC60CBDFE54CE00D7C60EBDF8DF38DFD7C6108D7F4F3936C6028D78847F811761
S123FDE02603BDF806811832397EF9FA30EE02EC00DDD7EC02DDD9BDFB12CEFFC1BDFB0E24
S123FE004F36BDFAEDBDFADDBDFADD324C811026F08DC427D3BDFB12CE00D7BDFAD8DED76A
S123FE20C610BDFADB085A26F9BDFADDC610DED7A600847F81202D0481612D02862EBDF8C1
S123FE4009085A26EBDCD993D7279DDFD77D00D826BF20A37EF8DF810D27138D8C2F0FDF39
S123FE60D7810D2709BDFDE92F04810D270386FF38397F00D68DE0BDFB12861097F6C612DE
S123FE808DD2CE00D6C6148DCB36C6168DC6BDFDD7BDFDD77F00F6324D39C601D7D6CE0033
S123FEA000DFD9810D27D08DBC20CCC6FF20ED86117D00D626014C7EF809CEFF8BBDFB0707
S123FEC07EF8D830EE02A60097D62759EC03DDD7BDF806815326F9BDF8068139273281314C
S123FEE026F17F00D08D2AC002D7DB8D24378D2132D3D73736388D197A00DB270E7D00D6D3
S123FF002B02E700E10026060820EB4C27C286FF395FBDFA3FC6103D375FBDFA3F331B165E
S123FF209BD097D039EC01DDD7EC03DDD9C6194FBDF8095A26F9DCD9D0D892D72604C1183E
S123FF402502C617CB04D7D6C003D7DBCEFFA2BDFB0E5FCE00D68D29CE00D78D24088D21AE
S123FF60DED78D1D087A00DB26F8DFD75337308D1033DED7099CD926BDCEFFA5BDFB0E4FC6
S123FF8039EB007EFAE1103A1039041413043F044C494C42554720312E30044E4F20434821
S123FFA04704533104533930333030303046430D044F502D0450015801410042004300538E
S119FFC00120202020202004FCE1FCE1FCE1FCE1FCE1F821F803FD
S123FFD6323383FFE4DEFE3AEE006E008DF28DF08DEE8DEC8DEA8DE88DE6FFE2FFE4FFE6D2
S10DFFF6FFE8FFEAFFECFFEEF81E3F
S903F8F60E
