S123E0000D0A0D0A202020202A2A2A2A2A2A2A2A20494C4C4547414C204F50434F444520EA
S123E0205452415020212121202A2A2A2A2A2A2A2A0D0A000D0A2020202020202020202044
S123E040202020202036384D6F6E2056312E32202843292031393932204B65697468205649
S123E0606173696C616B65730D0A008E00F68620BA1028B710288630B7102B860CB7102DFF
S123E0807F00FD867ECEE6A4DF019700DF049703DF079706DF0A9709DF0D970CDF10970F80
S123E0A0DF139712DF169715DF199718DF1C971BDF1F971EDF229721DF259724DF289727DC
S123E0C0DF2B972ADF2E972D0E20129FF78E00F6200B9FF78E00F6CEE000BDE127CEE034AC
S123E0E0BDE127BDE33B863EBDE1E6C603CEE1FCBDE1CDBDE1B7810D2607860ABDE1E62011
S123E100E5A100271C6D0027033A20F58D0220D6863FBDE1E6860DBDE1E6860ABDE1E60D46
S123E12039EE01AD0020BFA6002706BDE1E60820F6393736BDE155250C16BDE15E25063675
S123E1403738323339323320C7363C32BDE17432BDE18D32398D072404812027F839378D6B
S123E1606C8D34250D168D658D2D2506585858581B0C3339363684F044444444BDE1AFBD62
S123E180E1E632840FBDE1AFBDE1E632398DE5368620BDE1E632398D1E81302547813923D1
S123E1A00A8141253F8146223B800780300C390C8B90198940193981612506817A22028084
S123E1C0203981412506815A22028B20398D0925FC7D00FD2BF6200EB6102E84202705B618
S123E1E0102F0C390D398D0325FC3937F6102EC4802706B7102F330C39330D394DE2154719
S123E200E39955E29646E27052E33243E3AB53E6123FE3B500BDE1322554DFFEBDE1552581
S123E22005A7000820F6811B2744DEFE860DBDE1E6860ABDE1E6BDE149C610A600BDE18D74
S123E240085A26F7DEFEC610A6008120250481802302862EBDE1E6085A26EDDFFEBDE1D8F3
S123E26025C4860DBDE1E6860ABDE1E639380D39BDE13225F93CBDE13225F2DFFEBDE155EE
S123E280240286FF38A700089CFE23F9860DBDE1E6860A7EE1E696FD368A8097FD860DBD8F
S123E2A0E1E6860ABDE1E6862EBDE1E6BDE1CD2554813A26467F00FCBDE1552548369BFC94
S123E2C097FCBDE132240332203B3C8F9BFC97FCDBFCD7FC3833BDE1559BFC97FC5CBDE102
S123E2E05525225A2709A7009BFC97FC0820EF7000FC91FC260FBDE1CD20B13297FD860155
S123E3009AFD97FD393297FD7EE1102020535848494E5A564320204142204141202049585D
S123E3202020204959202020504320202053500D0A00BDE1CD810D2702206F860ABDE1E605
S123E340CEE30BBDE1278620BDE1E6BDE1E6DEF708E600860897FE4F588930BDE1E67A0046
S123E360FE26F48620BDE1E6BDE1E6A601BDE18DA602BDE18DEC038FBDE1498FEC058FBDFD
S123E380E1498FEC078FBDE149DEF7BDE149860DBDE1E6860ABDE1E639BDE132250CBDE198
S123E3A0CD810D26058E00D06E0039BDE1CD810D26F89EF73BCEE3BCBDE127390D0A0D0A4E
S123E3C00D0A0D0A0D0A434F4D4D414E44533A0D0A0D0A0D0A0D0A3F2020202020202020CD
S123E3E0444953504C41595320544849532053435245454E0D0A0D0A46205B787878785D4C
S123E400205B797979795D205B7A7A5D2046494C4C204D454D4F52592046524F4D207878CC
S123E420787820746F20797979792077697468207A7A200D0A0D0A4D205B787878785D207E
S123E4404D454D4F5259204558414D494E452C20444953504C415953204441544120415414
S123E460207878787820554E54494C20414E59204B455920495320505245535345440D0AD2
S123E4800D0A4D205B787878785D205B7979207A7A202E2E2E5D204D454D4F525920434830
S123E4A0414E47452C2057524954455320797920544F207878787820414E44207A7A2054C3
S123E4C04F2078787878202B310D0A0D0A4720787878782020205452414E534645525320C0
S123E4E0434F4E54524F4C4C20544F2050524F47414D20415420787878782E2050524F47C7
S123E50020495320474956454E20495453204F574E0D0A0D0A2020202020202020202053BD
S123E5205441434B20414E44204D55535420454E44205749544820412053574920544F20AE
S123E54052455455524E20544F20544845204D4F4E49544F520D0A0D0A522020202020208B
S123E5602020444953504C4159532055534552205245474953544552530D0A0D0A43202006
S123E580202020202020434F4E54494E554553204120555345522050524F4752414D2041A6
S123E5A0465445522041205357492C204C494B45204120425245414B504F494E540D0A0DAD
S123E5C00A53202020202020202055504C4F4144532041204D4F544F205331392048455820
S123E5E02046494C450D0A0D0A55202020202020202055504C4F41445320414E20494E5482
S123E600454C204845582046494C450D0A0D0A0D0A0096FD36860DBDE1E6860ABDE1E67F68
S123E62000FB7F00FABDE1CD257481532670BDE1CD813127128130260686FF97FA20088102
S123E64039265B86FF97FB7F00FCBDE155254F369BFC97FCBDE132DFFE24033220403C8F72
S123E6609BFC97FCDBFCD7FC3833C002BDE155252D5A270E7D00FA2602A7009BFC97FC0849
S123E68020EA7300FC91FC2615BDE1CD7D00FB278E3297FD86019AFD97FDDEFE6E00329712
S108E6A0FD7EE1103BCA
S123FFD60000000300060009000C000F001200150018001B001E002100240027002A002D9F
S10DFFF6E0CBE0D2E06BE06BE06BBF
S9030000FC
